:020000040000FA
:100000000002040000000000900200009E2A000090
:10001000A42A0000AA2A0000B02A0000B62A000084
:100020009002000090020000900200009002000088
:1000300090020000D01F000088180000900200000D
:1000400090020000900200004C200000900200008E
:1000500090020000AC180000981800009002000008
:100060009002000090020000900200009002000048
:100070009002000090020000900200009002000038
:100080009002000090020000901800009002000012
:10009000900200004818000090020000900200004A
:1000A0009002000090020000900200009002000008
:1000B00090020000900200009002000090020000F8
:1000C00090020000900200009002000090020000E8
:1000D00090020000900200009002000090020000D8
:1000E00090020000900200009002000090020000C8
:1000F00090020000900200009002000090020000B8
:1001000090020000900200009002000090020000A7
:100110009002000090020000900200009002000097
:10012000900200009002000090020000962A000059
:100130009002000090020000900200009002000077
:100140009002000090020000900200009002000067
:100150009002000090020000900200009002000057
:100160009002000090020000900200009002000047
:1001700090020000521F0000900200009002000058
:100180009002000090020000900200009002000027
:100190009002000090020000900200009002000017
:1001A0009002000090020000900200009002000007
:1001B00090020000900200009002000090020000F7
:1001C00090020000900200009002000090020000E7
:1001D00090020000900200009002000090020000D7
:1001E000CC1C000090020000521D00009002000094
:1001F000D01D0000E21D0000601E0000DE1E000099
:10020000FFFFFF00FFFFFF0090020000BC2A00007C
:10021000C22A0000C82A0000CE2A0000D42A00000A
:100220009002000090020000900200009002000086
:1002300090020000D01F000088180000900200000B
:1002400090020000900200004C200000900200008C
:1002500090020000AC180000981800009002000006
:100260009002000090020000900200009002000046
:100270009002000090020000900200009002000036
:100280009002000090020000901800009002000010
:100290009002000048180000900200009002000048
:1002A0009002000090020000900200009002000006
:1002B00090020000900200009002000090020000F6
:1002C00090020000900200009002000090020000E6
:1002D00090020000900200009002000090020000D6
:1002E00090020000900200009002000090020000C6
:1002F00090020000900200009002000090020000B6
:1003000090020000900200009002000090020000A5
:100310009002000090020000900200009002000095
:10032000900200009002000090020000962A000057
:100330009002000090020000900200009002000075
:100340009002000090020000900200009002000065
:100350009002000090020000900200009002000055
:100360009002000090020000900200009002000045
:1003700090020000521F0000900200009002000056
:100380009002000090020000900200009002000025
:100390009002000090020000900200009002000015
:1003A0009002000090020000900200009002000005
:1003B00090020000900200009002000090020000F5
:1003C00090020000900200009002000090020000E5
:1003D00090020000900200009002000090020000D5
:1003E000CC1C000090020000521D00009002000092
:1003F000D01D0000E21D0000601E0000DE1E000097
:10040000CFBF20000EBF22000E01880000000000B8
:100410000C000700C0982200010020001100070016
:10042000000020000000E000020032000000020096
:10043000000000004C110200000000000040DA0043
:100440000000FE004440A900800720000000E000FA
:100450000300320000002000A00188004440A800F2
:100460000000060091018800800078000000EB0089
:1004700015003700E280400032A0B4009101BA00BC
:10048000E280400032A0B4009102BA00E280400055
:1004900032A0B4000002EB00472BDE00F507B200EB
:1004A000602CE10004003A000059EB008301E900F0
:1004B000FDFF3E00040037006128E100010032002A
:1004C0000082EB00040007001101BA000200E00006
:1004D000E8FF3A00000006003159BA008301E90044
:1004E0000C0032002159BA008301E90008003200F3
:1004F0000400E00003003A00E280400032A0B400B3
:10050000F5FF370011D9BA008301E900FAFF3A007C
:100510008100E800E180400032A0B4000000060045
:100520000040DA000000FE000A00FA0080017800B6
:10053000E20F500028003E00D05F8000E10F500025
:1005400008003200802320000000E0000500320097
:10055000042320002523200046232000800178006A
:10056000040037000422200025222000462220001B
:1005700083222000144090000004E00004003500B5
:100580008009EB00144090000074A0001042980015
:10059000154090000028A30003003A001540900089
:1005A0000024A000904298008001EB000700370073
:1005B000154090000008A300FDFF320063C07800E2
:1005C0000000FB00000B78008301E800828F5100DF
:1005D000F7FF3A000800370030002000B0BF9F004E
:1005E000C3BF9F00D1BF9F00E2BF9F006A8057003A
:1005F00000C0DA006FB99700020078000080FA00AE
:1006000000000600839F68000100E00002003D003A
:1006100060001000E08018000300E00002003D00D0
:1006200060011100E0811900320007004F00E00076
:1006300002003B0060001000E0801800000006008F
:10064000889FBE008A9FBE00010578000100E0007F
:100650000400350008003C000000E00020003200EB
:100660000500370060001000E080180002003B0029
:1006700001F02C001A0037000004BE006011B80021
:100680006B0920000982CF00020039000882CF00E8
:100690000441B000694252000E00320008003B00E5
:1006A00082817100610164008904D1000884D30053
:1006B0008B05E8000442E800F9FF3A000500370026
:1006C0000804440089844C008B05E9000442E900D9
:1006D000FBFF3A00170007000AF0A70001F0A00096
:1006E0004F05BE004F04BE000000060014002000AD
:1006F000360037006022B800060220000000D0005B
:100700008180D2000482D2008582D2000000A00045
:100710000202520083825A000300310002024200AA
:1007200083824A000000A1000603E900F3FF3A00BB
:100730000000060081002000618055000B003D0094
:100740000B00200061FE2F000100E1001D003400BD
:1007500082817100610164008904D1000884D300A2
:100760000000E800FAFF3A00710020006100640018
:1007700003007000020060000900320061044400C0
:10078000E0844C000988A500050032008B05E800D4
:100790006808E10002003A008904D1000884D3000F
:1007A000F20F20000258E10005003D00C75DDD00AA
:1007B000F907B20089807500080078000000060083
:1007C0000BF827008B00780000000500889FBE0012
:1007D0008A9FBE00841F7800170007004F00780032
:1007E00011003300F0FF2F00838F6C0006003B00E8
:1007F000040565000A00A7000800370009F0A600FC
:100800001000200008003700820F5400838F5C0026
:10081000030039001000200001003E00000020000D
:1008200009F0A7000000EA004F05BE004F04BE001B
:100830000000E000000006000004BE000600070003
:100840000003BE000405BE000200BE000200070057
:10085000844F750000000600C70ADE00F107B200F1
:10086000F50FB20008003200E1CF42000200320072
:100870000170A00024000500810F7000010032000B
:100880000408050044000500810F700002003A00D2
:10089000140005008502E9000000400081C0480006
:1008A000FCFF3B000170A00024000500881F7800B9
:1008B000000478005001BE004000BE00040040006B
:1008C000858048000601490087814900009CBE00E0
:1008D0000294BE000400E1000588E1000690E100FA
:1008E0000798E10002003100680044001008E800A9
:1008F0004F04780000000600F4874700889FBE0080
:100900008A9FBE008C9FBE008E1F78000205BE002D
:100910000004BE00D4B79F00E5B79F00F6B79F0064
:1009200087BF9F000000EB00C0B79F00B0B79F00DB
:10093000A0B79F0090B79F0080B79F000D042000D4
:10094000BFB097004FB09700000140000000E000EA
:100950000F003D004F08DE0000007100C0B79F008F
:100960009E00070001003D0012002000A1000700CA
:1009700001003D0012002000A6000700B1000700A2
:10098000B60007000F004000C8FF07002200370034
:100990004F08DE0000067100CCB79F008F000700F3
:1009A00001003D00120020009200070001003D0000
:1009B0001200200097000700A20007000FB2970066
:1009C0009FB297002FB39700BFB39700A90007000D
:1009D0000000520081805A0002015B0083815B00AD
:1009E00080B79F0091B79F00A2B79F00B3B79F0049
:1009F0000007EB009F0007000020E10001A8E100D4
:100A000002B0E10003B8E100010031001E00200047
:100A10000E005600C0B79F004FB297000400E000E0
:100A20000700350010002000010020006011B80010
:100A300008047000898470000A0571008B857100BC
:100A40008D06E900BEFF3A000400E00003003D000F
:100A5000820007000F00400094FF07004FA8970096
:100A60000000E00004003A000FB497009FB4970024
:100A70002FB59700BFB59700940007004F07780087
:100A80004F06BE004F05BE004F04BE004F01B1002F
:100A900000000600881F780018002000881F7800DA
:100AA00095FF07008F87E9004F04780000000600DB
:100AB000801FEB0090FF07008F87E9000000060011
:100AC000889FBE008A9FBE008C1F78006E000700C2
:100AD00007003D0073000700E00F5B00E08F5B0044
:100AE00007003D00320007000006EB00040037005D
:100AF0003400070002003D002A0007001C0020000F
:100B000072000700E3FF07000203BE000002BE0000
:100B10000C00E00001003200220007000400BE00CB
:100B20000601BE004F0678004F05BE004F04BE0010
:100B300000000600889FBE008A9FBE008C1F7800C0
:100B40005100070005003D0056000700E00F5B0064
:100B5000E08F5B0006003D0004003700190007002D
:100B600003003D006000B8006011B80010000700ED
:100B700056000700CEFF07000203BE000002BE00C1
:100B80000C00E00001003200060007000400BE0077
:100B90000601BE004F0678004F05BE004F04BE00A0
:100BA000000006006000B8006011B80000003700C7
:100BB00004025000858258000603590087835900BB
:100BC000000006000006EB00E00F5200E08F5A0024
:100BD000E00F5B00E08F5B0000000600018040003A
:100BE00090B79F000001EB008FB097000100E0007C
:100BF000000006000200700090B79F0001804000D6
:100C000080B79F000001EB00FFA897000100E00003
:100C1000000006000200700080B79F0001804000C5
:100C20006FAA9700CF20DE0001007000F0AF9F0098
:100C300004024200250007004F18DE000002720087
:100C400000000600E4AF9F000804440089844C00C3
:100C50000A054D008B854D00000006003FB297004D
:100C6000CFB297005FB39700EFB3970000FE2F005D
:100C7000000006003FB09700CFB097005FB197002B
:100C8000EFB19700000006000205BE000004BE00A0
:100C9000E00F5000E08F5800E00F5900E08F59003E
:100CA000000006006000B8006011B80008045000A1
:100CB000898458000A0559008B8559001C002000C2
:100CC000E00F5200E08F5A00000006000800BE004E
:100CD0000A01BE0000000600881F7800004478006A
:100CE00038010700DCE2A900DCC2A900DCA2A900EF
:100CF000DC82A900DC62A900DC42A900DC22A90098
:100D0000DC02A900DD22A900DD42A900DD02A90064
:100D1000D8E2A900D8C2A900D8A2A900D882A90007
:100D2000D862A900D842A900D822A900D802A900F7
:100D3000D922A900D942A900D902A9000840780007
:100D40002C000700130007000004E000FDFF3A003C
:100D5000E0C0B300270007000E0007000004E00019
:100D6000FDFF3A0010C0B300220007000900070091
:100D70000004E000FDFF3A0060C0B3001D00070062
:100D8000040007000004E000FDFF3A004F04780073
:100D900000000600881F7800D8E2A800D8C2A8008A
:100DA000D8A2A800D882A800D862A800D842A8007B
:100DB000D822A800D802A800DD42A900DD22A800A0
:100DC000DD000700DD02A800E2000700A82D2000DA
:100DD00018447800DD02A900E5000700DD42A90003
:100DE000DD22A9000880FB004700DE004F047800E8
:100DF00000000600DD22A900DD42A900D8E2A9001A
:100E0000D8C2A900D8A2A900D882A900D862A90096
:100E1000D842A900D822A900D802A9008001FB006D
:100E20004F19DE004711DD00C12D200091407800F0
:100E30000174A10082C070008000FD00DCE2B700F8
:100E40008000FD00030178000204B2004611DE00BC
:100E50004611DD00C12D2000914078000164A10001
:100E600082C070008000FD00DCE2B7008000FD0061
:100E7000030178000202B2004511DE004511DD00D9
:100E8000C12D2000914078000154A10082C0700063
:100E90008000FD00DCE2B7008000FD007081610091
:100EA0004411DE004411DD00C12D20009140780086
:100EB0000144A10082C070008000FD00DCE2B700A8
:100EC0008000FD00688161004311DE004311DD00F8
:100ED000C12D2000914078000134A10082C0700033
:100EE0008000FD00DCE2B7008000FD00648161004D
:100EF0004211DE004211DD00C12D2000914078003A
:100F00000124A10082C070008000FD00DCE2B70077
:100F10008000FD00E28161008301D10083C14100B6
:100F2000C12D2000914078000114A10083C0700001
:100F30008000FD00DCE2B7008000FD006140600041
:100F4000C12D2000914078000104A10080C07000F4
:100F50008000FD00DCE2B7008000FD00DD02A8009B
:100F60008A000700DD02A90081000700DD42A90018
:100F7000DD22A90000000600DD22A900DD42A90053
:100F8000D8E2A900D8C2A900D8A2A900D882A90095
:100F9000DCE2A800D862A900D842A900D822A900A2
:100FA000D802A9008001FB00030178000204B2000E
:100FB0004611DE004611DD00C12D20009140780071
:100FC0000164A10082C070008000FD00DCE2B70077
:100FD0008000FD00030178000202B2004511DE002E
:100FE0004511DD00C12D2000914078000154A10081
:100FF00082C070008000FD00DCE2B7008000FD00D0
:10100000708161004411DE004411DD00C12D20001B
:10101000914078000144A10082C070008000FD0072
:10102000DCE2B7008000FD00688161004311DE0052
:101030004311DD00C12D2000914078000134A10052
:1010400082C070008000FD00DCE2B7008000FD007F
:10105000648161004211DE004211DD00C12D2000DB
:10106000914078000124A10082C070008000FD0042
:10107000DCE2B7008000FD00E28161008301D10065
:1010800083C14100C12D2000914078000114A100CE
:1010900083C070008000FD00DCE2B7008000FD002E
:1010A00061406000C12D2000914078000104A10042
:1010B00080C070008000FD00DCE2B7008000FD0011
:1010C000DD02A80031000700DD02A90028000700AA
:1010D000DD42A900DD22A900D8E2A800D8C2A800FC
:1010E000D8A2A800D882A800D862A800D842A80038
:1010F000D822A800D802A80000000600881F7800A7
:10110000000478000500370022FF07000004E0001B
:10111000FDFF3A00384078005D0007001804E00049
:10112000F9FF3A001BFF07000004E000FDFF3A0052
:101130004F047800000006000000EB0002003700BA
:101140000060FE0064004000E40F5000FCFF3A0025
:10115000000006000000EB00020037000060FE0007
:1011600064004000F00F5000FCFF3A000000060051
:101170000000EB00020037000060FE006400400049
:10118000E80F5000FCFF3A00000006000000EB00F2
:10119000020037000060FE0064004000F40F5000C1
:1011A000FCFF3A00000006000000EB0002003700E0
:1011B0000060FE0064004000F80F5000FCFF3A00A1
:1011C00000000600889FBE006044B800030037009E
:1011D0000060FE0064044400E0844C000800BE008F
:1011E00017FD070002C02700239124003FFD0700E0
:1011F0000000E000F6FF35004F04BE0000000600CE
:10120000889FBE006044B800030037000060FE0005
:1012100064044400E0844C000800BE0008FD0700A0
:10122000020025003384240030FD07000000E000A8
:10123000F6FF35004F04BE00000006000000EB0082
:10124000020037000060FE0064004000F80F50000C
:10125000FCFF3A0000000600881F78000004EB0045
:10126000020037000060FE00640444006140B900E1
:10127000F3FC070002002000A35F24001BFD070011
:101280000000E000F7FF35004F0478000000060082
:10129000DD22A900DD42A800D8E2A900D8C2A90039
:1012A000D8A2A900D882A900D862A900D842A90072
:1012B000D822A900D802A9008001FB004F19DE0046
:1012C0004711DD00C12D2000914078000174A1007C
:1012D00082C070008000FD00DCE2B7008000FD00ED
:1012E000030178000204B2004611DE004611DD0061
:1012F000C12D2000914078000164A10082C07000DF
:101300008000FD00DCE2B7008000FD0003017800F2
:101310000202B2004511DE004511DD00C12D2000A2
:10132000914078000154A10082C070008000FD004F
:10133000DCE2B7008000FD00708161004411DE0036
:101340004411DD00C12D2000914078000144A1002E
:1013500082C070008000FD00DCE2B7008000FD006C
:10136000688161004311DE004311DD00C12D2000C2
:10137000914078000134A10082C070008000FD001F
:10138000DCE2B7008000FD00648161004211DE00F4
:101390004211DD00C12D2000914078000124A10000
:1013A00082C070008000FD00DCE2B7008000FD001C
:1013B000E28161008301D10083C14100C12D200081
:1013C000914078000114A10083C070008000FD00EE
:1013D000DCE2B7008000FD0061406000C12D20000C
:1013E000914078000104A10080C070008000FD00E1
:1013F000DCE2B7008000FD00DD02A80063FF07000B
:10140000DD02A9005AFF0700DD42A900DD22A90084
:10141000D8E2A800D8C2A800D8A2A800D882A80004
:10142000D862A800D842A800D822A800D802A800F4
:10143000000006000C00FA00889FBE00000478003F
:10144000CFB09700F0FF2700D0BF9F008004EB00D3
:1014500099BF9F0088BF9F00A8BF9F00200C20005D
:10146000B0BF9F0078815700708057000F000700C1
:101470000FB89700094878000FB89700080450008B
:10148000080078004F04BE000080FA00000006004B
:101490000000FA00CFB8970068815700C0BD200057
:1014A000020007000080FA0000000600FE874700E7
:1014B000889FBE008A9FBE008C9FBE008E1F780052
:1014C000F0B79F000107780082BF9F000000EB008B
:1014D000A0B79F009F0237008006EB0050C2B30008
:1014E00080CF5000090032000100FB00FFB09700E0
:1014F000A3020700E10F400096023200AFB0970050
:101500008100E800A1B79F00920237009E4078005A
:10151000D0C2B30080CF50000C00320007003C0066
:101520006D40500080CF50000A0032006B404000F8
:1015300080CF50000E003A000800370000C3B3000F
:1015400080CF50000A003A00060037000D30A0009E
:10155000050037000D00A000030037000D10A000AB
:10156000010037000D20A0000E07E800E7FF37005C
:101570000D18A300010032000D00A1000D38A300DA
:10158000010032000D20A1000100FB0002FD2F0030
:1015900002004000E90F50000E003E000002EB0088
:1015A000C4B79F0082017800CFB297006A28B900C3
:1015B0001E01FB000001410003014100C2B79F0072
:1015C0005E00FB0003004000E90F50000B003E00EE
:1015D000F5FF37000006EB00CCB79F00A0C2B300B8
:1015E00080CF500005003A000FB89700C000780087
:1015F00080BF9F00C1B79F000E07E8000001EB000D
:10160000B2B79F00E0C2B3009E4F100018003A002E
:101610000DE0A0008E00E80064405000914F1000E3
:1016200002003200010778000C0037000FBA970063
:10163000C402780084BF9F00B5B79F000E87E80002
:101640000B0037003FB697006A60B9000000410008
:1016500003004000B0B79F000E07E8001E01FB002A
:1016600003FD2F0003004100E90F5000F5FF360095
:10167000BE407800E1D79F00C0C6B30080CF5000C5
:10168000220032000F003C006940500080CF500023
:101690007700320004003C000104E0003102320017
:1016A0006B4050000F00370040C6B30080CF5000A1
:1016B000930032006540400080CF50008B003A001C
:1016C0008F00370030C7B30080CF50001A003200BF
:1016D00007003C006440500080CF500011003200F1
:1016E0000040E80080CF500080003A000F00370033
:1016F00050C7B30080CF50008000320063404000EC
:1017000080CF500079003A0009003700000028001F
:101710000D48A30001003A000001200080867600F9
:10172000D3FF37000D60A000750037000D50A000FA
:101730000D70A000720037008FB89700410078004C
:1017400081BF9F00000478000000E00001003A0023
:1017500048BA20008004EB00010037008104E80053
:1017600089007800088044001004E000FBFF3A0084
:101770003FB197000200E00003003200890F5100E2
:1017800001003100820478000002EB00E4AF9F000A
:10179000CFB29700898F52000200360009805200B4
:1017A000E0AF9F004368DE00E10660001B003A00E6
:1017B0000D06780009003700FFB0970000022000F6
:1017C000EF010700E10F4000030032002FB0970047
:1017D0000000E800A0B79F000C06E800EFA8970003
:1017E000810F5600F4FF3A000081EB00E2AF9F004A
:1017F0000A003700880078003100FB0001047800FF
:10180000FFB09700DE010700E10F40000300320047
:101810002FB297000402E800A4B79F000900E90076
:1018200080047800E10F4000F2FF3A000006EB0070
:101830000D00E0000A003A00C6013700FFB0970033
:1018400000022000CE010700E10F4000030032003B
:10185000AFB297008502E800A5B79F000C06E8002C
:101860006FA89700800F5600F4FF3A00B9013700C7
:101870008FB897004100780081BF9F00CF80DE00C5
:1018800001017800820178000205BE000004BE005C
:101890000203BE000002BE004822DE00482EDD002A
:1018A00004027600E4D79F000D48A3000A0032002E
:1018B0000404E00008003200E14F4200060032005C
:1018C00071FD2F00018047000448780018409800FF
:1018D0002900200002003700F0D79F0019002000E7
:1018E00072FD2F0002844700A1FF370064FD2F0026
:1018F00004844700190020009DFF37000D0CB30041
:101900000D007800000CB20028003A000D00E00045
:1019100005003D008FBA97004505BE004504BE0096
:1019200085BF9F00140037000D48A3000B00320054
:101930000FBE97004C00BE008CBF9F004F89DE0099
:10194000CF91DE000002BE0002037800820378001F
:101950000605BE000404BE00070037008FB89700DC
:101960004100780081BF9F0000047800CFC4DE00F2
:10197000090578008A057800E00F5400E08F5C00CC
:10198000E00F5D00E08F5D001F003D003D00B300F3
:101990006000B8006011B800080450008984580045
:1019A0000A0559008B855900170037000D00E0002B
:1019B00005003D000FB997004205BE004204BE007D
:1019C00082BF9F00100037000D48A30007003200BF
:1019D0000FBA97004400BE0084BF9F006011B8009A
:1019E0000205BE000004BE00070037008FBA970052
:1019F0004500780085BF9F000004780009002000A2
:101A00000A0020000B0020003FB697000C00E00009
:101A100007003A00E00F5400E08F5C00E00F5D002B
:101A2000E08F5D0002003A0010002000B0B79F0078
:101A30008D007800010CB200E1B79F000004200087
:101A4000808F50003000320003003C000100E000B5
:101A50000800320040003700000820006FB19700F6
:101A6000800F510014003200000C2000800F510044
:101A700039003A0014C0B30045B020000B00370015
:101A80000400FB004300DD00050040005001BE00E3
:101A90004000BE000040E10001C8E10002D0E100CA
:101AA00003D8E1002B0039000442E800F44F520053
:101AB000F3FF3A002700370000012000010020005A
:101AC0006011B80014C0B3000040E10001C8E1009B
:101AD00002D0E10003D8E1001E00390045002000DB
:101AE0000000D0008180D2000281D2008381D20028
:101AF0008502E900FAFF3A000442E800F04F520084
:101B0000F1FF3A00130037008000200001002000A0
:101B10006011B80014C0B3000040E10001C8E1004A
:101B200002D0E10003D8E1000A0039003C002000A7
:101B30000000D0008180D2000281D2008381D200D7
:101B40000C06E900FAFF3A000442E800F54F5200A3
:101B5000F1FF3A00E4D79F00EFD097000100FB00AF
:101B60003FB19700820F500002003D00E2D79F0076
:101B7000040037003FB29700800F520001003D0083
:101B8000B0B79F00CFB297000500E000040032001C
:101B900063806600020032008502E900C5B79F003D
:101BA0000DE8A3000B0032004FB697003FB097003E
:101BB000800F560003003C008000EB00C1B79F007F
:101BC000040037004FB197003FB297000401510065
:101BD000C2B79F00EFD297000500FB000006EB00A4
:101BE000DCAF9F00CFB09700808F50000200340020
:101BF00000805000D0AF9F000D28A30037003200B6
:101C0000E18066000D18A3000C003200D002200015
:101C10000100E00001003A000080E900FFB09700F9
:101C2000D7000700E10F40000E0032002FB19700EF
:101C30000201E800A2B79F000A0037000100E0009F
:101C400008003200FFB0970000022000CC0007001F
:101C5000E10F4000030032002FB297000402E800B9
:101C6000A4B79F00DFAA97000500E0000F00320034
:101C70000006EB00FFB0970000032000C000070043
:101C8000E10F4000030032002FB097000000E80091
:101C9000A0B79F000C06E800DFA89700810F560050
:101CA000F4FF3A000001EB00D2AF9F003FB2970073
:101CB000C320DD00C0AF20008080400091B79F00AE
:101CC0004220DD006400500080B79F006320B9000F
:101CD000F0AF9F006306500084003700DFAA970032
:101CE0000500E00011003200688066000F003A0035
:101CF00000067800FFB0970000022000A000070057
:101D0000E10F4000030032002FB097000000E80010
:101D1000A0B79F000C06E800DFA89700810F5600CF
:101D2000F4FF3A000001EB00D2AF9F00E1806600B3
:101D30000D18A3000C003200D00220000100E000CA
:101D400001003A000080E900FFB097008C00070016
:101D5000E10F4000D5FF32002FB297000402E800E7
:101D6000A4B79F00D1FF37000100E000CFFF320091
:101D7000FFB097000002200081000700E10F400043
:101D8000CAFF3200AFB297008502E800A5B79F00F6
:101D9000C6FF370000042000EFB09700808F50008E
:101DA0003100320003003C000100E0000800320076
:101DB0003E003700000820006FB19700800F5100EF
:101DC00011003200000C2000800F510037003A0053
:101DD0001FB097003002BE002003BE000800BE0006
:101DE0000A01BE002BFB0700A40020000500200014
:101DF0006033B8002EFB070004C3B3000442400068
:101E0000E4D79F0029003700B5BA2000D5B79F005E
:101E10000D58A30002003A00C0BB2000D0B79F00BD
:101E200014002000050020006033B8008FB0970038
:101E30008100E900050033000402D0008582D20051
:101E40000683D2008783D200F9FF37000800BE0066
:101E50000A01BE000FFB07006F0060005FB1970032
:101E600062407800100037001400200005002000B8
:101E70006033B8000C0078000000E9000500330072
:101E80000402D0008582D2000683D2008783D2006C
:101E9000F9FF37000800BE000A01BE00FDFA070086
:101EA000674060000043B000E0D79F00EFD097008C
:101EB0000100FB00FFB0970031000700E10F400078
:101EC000030032002FB197000201E800A2B79F0083
:101ED0001FB297006802520094B79F008FB297001C
:101EE000E482520085B79F0063065600D0FF2F00A2
:101EF0003FB197000090B9007FAA97000000420010
:101F000063005000800F5600A2FF3A000D38A30076
:101F100010003200DFAA97000500E0000D00340039
:101F20000006EB00FFB0970000022000140007003D
:101F3000E10F4000030032002FB097000000E800DE
:101F4000A0B79F000C06E800DFA89700810F56009D
:101F5000F4FF3A00BE407800E1D79F000104E000A2
:101F60005DFD3A002FB097004F0778004F06BE0086
:101F70004F05BE004F04BE00EF01B1000000060097
:101F8000889FBE000001780001047800B100900035
:101F90000118A3003D0032000198A30003003A009D
:101FA000180090000000E00038003A000190A00006
:101FB0003104980082047800F90FB20018009000F4
:101FC0000000E00002003A0028009000000C7800B9
:101FD000EA8F540006003A00380090000078A30011
:101FE00003003A0088007800D0002000E4FF0700DA
:101FF0009800900058009000808F50000B00320035
:102000000100E800100498001800780009587800D2
:10201000000C780011C0B30080BF20000148780098
:10202000EA8F54000600320019003700880078005B
:102030000940780019000700800478001400370078
:10204000380090000088A3001100320018019000B1
:10205000A80090004800900033F907009800900015
:10206000810F500004003200380090000003B300DC
:10207000300498008084EB000000EB00100498000E
:1020800028009000000C7800010037008084EB00ED
:10209000090078004F04BE00000006000200FA00AC
:1020A000889FBE00A0FF9F0001047800B10090004F
:1020B000810478000904B200020032000000FB0035
:1020C000360037000118A30005003A000103B300F1
:1020D00031049800190498000080EB002F003700AD
:1020E000580090000000E00006003A004800900010
:1020F00012002000E68057000BF907001904980031
:1021000024003700280090000000E00008003A009A
:1021100040BF200020049800000C78002000200020
:1021200050049800100498000130A0003104980079
:1021300018019000A800900048009000FAF80700ED
:1021400028009000000C78000080EB00100498003C
:1021500018007800AFF8970001587800000C78005C
:102160002FF89700EA4F50000A003A00380090001C
:102170000088A3000700320018019000A80090001A
:1021800048009000E8F8070019049800A8009000A3
:10219000010C7800AFF897000100FB004F04BE006F
:1021A0000080FA000000060049540000532000009F
:1021B0006973000020720000756E00006E690000F7
:1021C0006E67000000750000746900006C0000007C
:1021D000256900002563000000470000656E0000CF
:1021E000004900006E760000005300004F430000DD
:1021F0003D00000025730000202500006925000037
:1022000063000000256400000A000000256400004F
:1022100000310000003000000025000063000000D5
:10222000414300004B00000057610000697400004A
:102230002E2E00002E00000055740000696C000076
:1022400069740000792E00002E2E0000004200006C
:102250006174000074650000727900002E2E000089
:102260002E00000057610000697400002066000025
:102270006F72000020470000656E00002E00000015
:10228000476500006E65000072610000746F000019
:1022900072200000000000000000FA009002200000
:1022A000303A880044C7BF00F043B20044E7B700AB
:1022B000417420009140780000CEB30000C060005F
:1022C00044E7B7001200200081072000A009200089
:1022D0003374200081497800804978008249780071
:1022E00012002000610420007005200024742000EA
:1022F000014A7800004A7800024A780043C7BF00CC
:102300000047B200F04F5000FCFF3A0042C7BF0048
:102310000042B2000004E000FCFF320050C7A800F9
:1023200051A7A800117520009140780080CFB3001C
:1023300000C060003040B30051E7B70051E7A8008B
:1023400051C7BF000044B2000004E000FCFF3200AF
:102350000000EB00405488000000EB00505488005F
:102360000000EB00605488000000EB00705488000F
:102370000000EB00805488000000EB0090548800BF
:102380000000EB00A05488000000EB00B05488006F
:102390000000EB00C05488000000EB00D05488001F
:1023A0000000EB00105888002D0037001058800006
:1023B0008000400080942000808040000000EB00FE
:1023C000800878001058800080004000809820002D
:1023D000808040000000EB008008780010588000EA
:1023E00080004000809C2000808040000000EB00C6
:1023F00080087800105880008000400080A02000F5
:10240000808040000000EB008008780010588000B9
:102410008000400080A42000808040000000EB008D
:10242000800878001058800080004000408C200018
:10243000808040000000EB00800878001058800089
:102440008000400040902000808040000000EB00B1
:1024500080087800105880000000E80010588800BC
:1024600010588000FF0F5000D0FF3400E0C6B300CA
:1024700057E8B7000000EB00605588000000EB0053
:10248000705588000000EB00805588000000EB00CC
:10249000905588000000EB00A05588000000EB007C
:1024A000B05588000000EB00C05588000000EB002C
:1024B000D05588000000EB00E05588006000B800AF
:1024C00020568800315688006000B80040568800C9
:1024D000515688006000B800605688007156880028
:1024E0000000EB00F05588000000EB00005688006B
:1024F0000000EB00105688000000EB00A0458800AB
:102500000000EB00904588006018200001002000CA
:102510000046880011468800E010200001002000DD
:10252000E0458800F145880080010700DF0B0700C7
:10253000B9010700CD01070002020700A30207004E
:10254000BA0207009580A8009560A8000000EB0083
:10255000104388000000EB00204388000000EB00DF
:10256000304388000000EB00404388000000EB008F
:10257000504388000000EB00604388000000EB003F
:102580007043880001E4A80001E3A8000000EB000C
:10259000104588000000EB00204588000000EB009B
:1025A000304588000000EB00404588000000EB004B
:1025B000504588000000EB00604588000000EB00FB
:1025C000C04388000000EB00D04388000000EB000F
:1025D000E04388000000EB00F04388000000EB00BF
:1025E000105788000000EB00F04288000000EB006C
:1025F000E0428800E0C6B30058E8B700E0C6B30088
:1026000059E8B700E0C6B3005AE8B7000000EB0095
:10261000905688000000EB00A05688000000EB00F8
:10262000B05688000000EB00C05688000000EB00A8
:10263000D0568800DD62A900D5A2A900D5C2A900A4
:10264000DD82A9001000200020578800400D2900DD
:1026500030578800800320009FF907000000EB003E
:102660008056880000003700B05480004400DD0030
:1026700052002000110009000200D800E054880038
:10268000D05480004400DD005200200011000900F9
:102690000200D800F0548800905480004400DD000F
:1026A00052002000110009000200D80000558800E7
:1026B00040548000000040001055880060548000A5
:1026C000000040002055880057C8BF0058E8B700F8
:1026D0006000B800C0458800D14588000000EB00CC
:1026E000904288000F003700904280008000400038
:1026F0004090200000804000100078006101B90087
:10270000C0458000D1458000020040008380480021
:10271000C0458800D1458800904280000000E80054
:102720009042880090428000FF0F5000EEFF34007E
:10273000C2458000D3458000E0458000F14580001F
:10274000450ADD00CB00DE00810072004500DD009F
:102750000000510081805900C0458800D1458800A3
:10276000004680001146800000017800E0458000AE
:10277000F145800000005100B0458800C44580004C
:10278000D5458000B04580006101B9000400BE005D
:102790009CF7070070458800704580007900B900FB
:1027A00070458800704580008200200011000900FB
:1027B0000200D80070458800714580004006200066
:1027C000808F5000020034004006200070458800D1
:1027D000704580000000E00002003D000000EB00BA
:1027E00070458800805680000000E8008056880010
:1027F0008156800000532700808F50009AFF3400DC
:102800000000EB008056880062F907000000E0003D
:1028100095FF3A001000200076F907005DF90700E7
:102820000000E000FDFF3A000000EB00D2F90700D5
:1028300058F907000000E000FDFF3A003057800023
:102840002EFA0700305780004057880051F90700E2
:102850000000E000FDFF3A0000042000C6F9070078
:102860004CF907000000E000FDFF3A00300E29009F
:1028700022FA070047F907000000E000FDFF3A00D8
:1028800000012000BCF90700B1548000D0062000F0
:102890000088B90022082000110009000200D800B9
:1028A0008000780060052000801F7800811F78007C
:1028B000800E2900801F7800E0AE2000DDFA0700BE
:1028C000E687570033F907000000E000FDFF3A00FB
:1028D000E0AE200009FA0700B054800030558800AF
:1028E0002CF907000000E000FDFF3A006004200022
:1028F000A1F9070027F907000000E000FDFF3A00FA
:10290000D00E2900FDF9070022F907000000E000C1
:10291000FDFF3A006001200097F90700D1548000C4
:10292000D00620000088B90022082000110009000C
:102930000200D8008000780060052000801F780029
:10294000811F7800800E2900801F780020AF2000B2
:10295000B8FA0700E68757000EF907000000E0000C
:10296000FDFF3A0020AF2000E4F90700D0548000BA
:102970004055880007F907000000E000FDFF3A001D
:10298000B00420007CF9070002F907000000E00015
:10299000FDFF3A00100F2900D8F90700FDF80700E5
:1029A0000000E000FDFF3A00B001200072F90700CE
:1029B00091548000D00620000088B9002208200031
:1029C000110009000200D800800078006005200096
:1029D000801F7800811F7800800E2900801F7800FA
:1029E000A0AE200093FA0700E6875700E9F8070039
:1029F0000000E000FDFF3A00A0AE2000BFF9070094
:102A00009054800050558800E2F807000000E00074
:102A1000FDFF3A000005200057F9070071458000CE
:102A200050022000801F7800811F7800500F29007D
:102A3000801F7800A00F2900801F780060AF200061
:102A40007CFA0700E8875700D2F807000000E00092
:102A5000FDFF3A0060AF2000A8F907007045800034
:102A600080458800CBF807000000E000FDFF3A0039
:102A70008005200040F90700415480006054800028
:102A8000008040006900B900E20120001100090047
:102A90000200D8008000780010042000801F780019
:102AA000811F7800800E2900801F7800A0AF2000D1
:102AB00060FA0700E6875700B6F807000000E0005C
:102AC000FDFF3A00A0AF20008CF90700B1F8070025
:102AD0000000E000FDFF3A00C005200026F90700D5
:102AE0000045800032002000110009000200D800DB
:102AF0008000780030042000801F7800811F78005B
:102B0000800E2900801F7800E0AF200049FA0700FE
:102B1000E68757009FF807000000E000FDFF3A003D
:102B2000E0AF200075F90700CFFE37000000FA0083
:102B30000000EB00200488000000EB003004880057
:102B40000000EB00400488000000EB005004880007
:102B50000000EB00600488000000EB0070048800B7
:102B60000000EB00800488000000EB009004880067
:102B70000080FA00000006000000FA006002200059
:102B8000303A880044C7BF00F043B20044E7B700C2
:102B9000417420009140780000CEB30000C0600076
:102BA00044E7B7000000EB00403A880040A7A900C6
:102BB0003200200081072000A0092000337420008B
:102BC000814978008049780082497800120020000D
:102BD00061042000700520002374200081497800E2
:102BE000804978008249780043C7BF0002C7B3001C
:102BF0008240600000C3B30080CF5000FAFF3A006B
:102C000042C7BF000042B2000004E000FCFF3200F7
:102C10000080FA00000006000000FA0000532700C0
:102C20002020880080A92300302188000000EB00CC
:102C300040218800214020009140780080CFB300DF
:102C400000C0600002E4B70023E4A90023C4A90087
:102C5000314220009140780030CFB30000C06000C6
:102C600023E4B7000080FA00000006000000FA002C
:102C7000E002A900E022A900E042A900E062A90068
:102C8000E082A900E0A2A900E0C2A900E0E2A90058
:102C9000E4E2A900E402A900E422A900E442A900B8
:102CA000E462A900E482A900E4A2A900E4C2A900A8
:102CB000F002A900F022A900E822A900F402A9006C
:102CC000F422A900EC22A900C002A800C822A80092
:102CD000C842A800C862A800D962A900D1A2A90070
:102CE000D1C2A900D982A900DD62A900D5A2A9009C
:102CF000D5C2A900DD82A900F1A2A800F182A80036
:102D0000F1C2A800D042A800D062A800C042A90029
:102D1000F042A900F062A900C442A900F442A9004F
:102D2000F462A900D9A2A900DDA2A900C0A2A9004D
:102D3000C4A2A900E8C2A800D9C2A8000080FA0075
:102D4000000006000000FA000103A90000E3A9004A
:102D500000C3A90000A3A900013020009140780021
:102D600080CFB30000C060006040B30000E3B70054
:102D70000203A9000323A9000343A9000363A900D8
:102D80000383A90003A3A90003C3A90003E3A900C7
:102D90000403A8000423A8000443A8000463A800B7
:102DA0000483A90004A3A9000283A90002A3A90027
:102DB00091C0A900B10D20009140780080CFB300F0
:102DC00000C060000024A000DBE0B700A1C0A800A4
:102DD0009200A900C10D20009140780080CFB3007F
:102DE00000C060000024A000DCE0B700A200A80042
:102DF0009240A900D10D20009140780080CFB3000F
:102E000000C060000024A000DDE0B700A240A800E0
:102E10009260A900D10D200091407800F0C8B30065
:102E200000C0600001C4B30001407000DDE0B700E5
:102E3000A260A8009280A900E10D200091407800D6
:102E400080CFB30000C060000024A000DEE0B70027
:102E5000A280A80092A0A900E10D20009140780076
:102E6000F0C8B30000C0600001C4B30001407000AE
:102E7000DEE0B700A2A0A8008E60A900D10C20005F
:102E800091407800F0C8B30000C0600001C4B300F6
:102E900001407000CDE0B7009E60A8000603A900C5
:102EA0000AE3A800A13020009140780000CEB300D2
:102EB00000C060000024A0000AE3B7000643A90098
:102EC0000CE3A800C13020009140780000CEB30090
:102ED00000C060000024A0000CE3B7000683A90036
:102EE0000EE3A800E13020009140780000CEB3004E
:102EF00000C060000024A0000EE3B70006A3A900F4
:102F00000FE3A800F13020009140780000CEB3001C
:102F100000C060000024A0000FE3B70006C3A900B2
:102F200010E3A800013120009140780000CEB300EA
:102F300000C060000024A00010E3B70006E3A90071
:102F400011E3A800113120009140780000CEB300B9
:102F500000C060000024A00011E3B7000743A900EF
:102F600014E3A800413120009140780000CEB30066
:102F700000C060000024A00014E3B70034E4A900FE
:102F8000902180006700600090218800B0218000BF
:102F900067006000817F200001007000B021880080
:102FA00035C4BF006F40600035E4B70041432000E6
:102FB0009140780000CCB30000C060000004A00085
:102FC00034E4B7000080FA00000006000000FA00B8
:102FD0000000EB00200888008460A900510A20004E
:102FE00091407800F0C8B30000C0600001C6B30093
:102FF00001407000A5E0B7009460A8000000EB005D
:1030000000088800F0FF200010088800211120002F
:1030100091407800F0CCB30000C0600012E1B7002E
:1030200005E1A8000080FA00000006000000FA0098
:103030000000EB00800888008500A900810A2000BC
:103040009140780080CFB30000C060006040B300C2
:10305000A8E0B7009500A8000000EB005008880029
:10306000102720007008880021112000914078006E
:10307000F0CCB30000C0600001C2B300014070009A
:1030800012E1B70013E1A8000080FA00000006007A
:103090003600F800809FBE00829FBE00849FBE0065
:1030A000869FBE000000FA00D2C2BF0062406000EE
:1030B0000004E00005003A0036F707000000E000D9
:1030C00002003A00000120004AF70700F3C2BF00E7
:1030D0000044B2000004E00005003A002DF70700AC
:1030E0000000E00002003A004001200041F7070024
:1030F0008760A9000080FA004F03BE004F02BE00A7
:103100004F01BE004F00BE003600F900004006002F
:103110000000FA008480A9000080FA000040060048
:103120000000FA008700A9000080FA0000400600B5
:103130003400F800881F780008002000A8018800EB
:103140004F0478000000FA008580A9000080FA0092
:103150003400F900004006003600F800809FBE00F1
:10316000829FBE00849FBE00869FBE003400F80090
:1031700000002000A00188000600FA003011800045
:1031800056E8B70056C8BF000000FB006101B90057
:10319000F0FB2F00F1FF2F00020140008381480067
:1031A00012079800230798009003200001002000D8
:1031B0001E019000AE019000800F5100818F5900D8
:1031C000EC013E001E009000AE0090000060010087
:1031D00053013700580137005D01370062013700A5
:1031E000670137006C013700710137007601370045
:1031F0007A013700820137008A01370092013700D7
:10320000980137009E013700A6013700AE01370054
:10321000B4013700BA013700BE013700C2013700E0
:10322000C6013700CA013700CE013700D10137008F
:10323000D0013700CF013700CE013700CD01370074
:10324000CC013700CB013700CA013700C901370074
:10325000190037001F003700250037002B0037000A
:1032600031003700370037003D003700430037009A
:10327000490037004F0037005C0037006900370015
:103280007600370083003700900037009D0037003C
:10329000AA003700B8003700F3003700F800370005
:1032A000FD00370002013700070137000C0137002D
:1032B000110137001501370000558000801F78008C
:1032C00020102900801F780071F80700E48757005C
:1032D000A8013700E0548000801F780060102900AA
:1032E000801F78006AF80700E4875700A1013700C3
:1032F000F0548000801F780060102900801F780043
:1033000063F80700E48757009A01370010558000E2
:10331000801F780060102900801F78005CF807008B
:10332000E48757009301370020558000801F780004
:1033300060102900801F780055F80700E4875700C7
:103340008C01370010558000801F78006010290024
:10335000801F78004EF80700E4875700850137008A
:1033600020558000801F780060102900801F7800A1
:1033700047F80700E48757007E01370010558000AA
:10338000801F780060102900801F780040F8070037
:10339000E48757007701370020558000801F7800B0
:1033A00060102900801F780039F80700E487570073
:1033B00070013700E4C2BF00614060000004E0001B
:1033C0000500320090102900801F780030F80700B7
:1033D0008F87E90067013700B0102900801F78004F
:1033E0002BF807008F87E90062013700E4C2BF00B5
:1033F000624060000004E0000500320090102900E7
:10340000801F780022F807008F87E90059013700F4
:10341000B0102900801F78001DF807008F87E90091
:1034200054013700E4C2BF00644060000004E000C3
:103430000500320090102900801F780014F8070062
:103440008F87E9004B013700B0102900801F7800FA
:103450000FF807008F87E90046013700E4C2BF007C
:10346000684060000004E000050032009010290070
:10347000801F780006F807008F87E9003D013700BC
:10348000B0102900801F780001F807008F87E9003D
:1034900038013700E4C2BF00704060000004E00063
:1034A0000500320090102900801F7800F8F707000F
:1034B0008F87E9002F013700B0102900801F7800A6
:1034C000F3F707008F87E9002A013700E4C2BF0045
:1034D0000042B2000004E000050032009010290014
:1034E000801F7800EAF707008F87E9002101370085
:1034F000B0102900801F7800E5F707008F87E900EA
:103500001C013700E4C2BF000044B2000004E00028
:103510000500320090102900801F7800DCF70700BA
:103520008F87E90013013700B0102900801F780051
:10353000D7F707008F87E9000E013700E4C2BF000C
:1035400001C8B300014060000004E0000500320043
:1035500090102900801F7800CDF707008F87E900C1
:1035600004013700B0102900801F7800C8F7070059
:103570008F87E900FF00370057C8BF000000FB003D
:10358000000F7800200620009E007800808F5000F9
:1035900019003200200620001E017800800F510023
:1035A00005003C00200420009E017800808F51001F
:1035B0001800320025003700700620009E007800B9
:1035C000808F50001A003200500720001E01780042
:1035D000800F5100010032001C0037005005200010
:1035E000801F7800D0102900801F7800A8F70700FE
:1035F000E4875700DF00370020042000801F780098
:10360000D0102900801F7800A1F70700E487570039
:10361000D800370020042000801F7800D010290037
:10362000801F78009AF70700E4875700D100370021
:1036300070042000801F7800D0102900801F7800BF
:1036400093F70700E4875700CA003700E006200020
:10365000801F7800D0102900801F78008CF70700A9
:10366000E4875700C3003700E402A90000112900D5
:10367000801F780086F707008F87E900BD003700BC
:10368000E422A90000112900801F780080F70700BC
:103690008F87E900B7003700E442A9000011290034
:1036A000801F78007AF707008F87E900B1003700A4
:1036B000E462A90000112900801F780074F7070058
:1036C0008F87E900AB003700E482A90000112900D0
:1036D000801F78006EF707008F87E900A50037008C
:1036E000E4A2A90000112900801F780068F70700F4
:1036F0008F87E9009F00370000112900801F7800A4
:1037000063F707008F87E9009A003700001129004E
:10371000801F78005EF707008F87E900950037006B
:10372000E402A80000112900801F780058F7070064
:103730008F87E9008F003700E422A80000112900DC
:10374000801F780052F707008F87E9008900370053
:10375000E442A80000112900801F78004CF7070000
:103760008F87E90083003700E462A8000011290078
:10377000801F780046F707008F87E9007D0037003B
:10378000E482A80000112900801F780040F707009C
:103790008F87E90077003700E4A2A8000011290014
:1037A000801F78003AF707008F87E9007100370023
:1037B000E4C2A80000112900801F780034F7070038
:1037C0008F87E9006B00370000112900801F780007
:1037D0002FF707008F87E9006600370020C6B30087
:1037E0005AE8B700D0C4B30058E8B7000011290068
:1037F000801F780026F707008F87E9005D003700FB
:1038000050C7B3005AE8B700D0C4B30058E8B700B7
:1038100000112900801F78001DF707008F87E9003D
:103820005400370070C6B3005AE8B700D0C4B300E4
:1038300058E8B70000112900801F780014F707002E
:103840008F87E9004B003700E0C6B30058E8B700A7
:1038500000112900801F78000DF707008F87E9000D
:103860004400370070458000801F780060102900F8
:10387000801F780006F70700E48757003D003700F7
:10388000E0C6B3005AE8B700D0C4B30058E8B700A8
:1038900000112900801F7800FDF607008F87E900DE
:1038A00034003700E0C6B3005AE8B700D0C4B30014
:1038B00058E8B70000112900801F7800F4F60700CF
:1038C0008F87E9002B00370010002000E0428800BD
:1038D00000112900801F7800EDF607008F87E900AE
:1038E000240037000000EB00E042880000112900AE
:1038F000801F7800E6F607008F87E9001D0037007B
:1039000000112900801F7800E1F607008F87E90089
:103910001800370000112900801F7800DCF607002E
:103920008F87E9001300370000112900801F7800FD
:10393000D7F607008F87E9000E0037000011290035
:10394000801F7800D2F607008F87E9000900370052
:1039500000112900801F7800CDF607008F87E9004D
:103960000400370000112900801F7800C8F6070006
:103970008F87E9008560A9000080FA003400F90013
:103980004F03BE004F02BE004F01BE004F00BE00FD
:103990003600F90000400600809FBE00829FBE00F6
:1039A0000200FA0091C0A9000000EB00000F7800AF
:1039B0000B0037001E0178001E00E8008000400068
:1039C000408C20000080400090017800820041007F
:1039D000408C200000804000030878001E0FE800A3
:1039E000E00120009E0F1000F2FF3400001A80005A
:1039F000104888000000EB00A04588000000EB00A4
:103A0000000F7800090037001E0078008000400099
:103A1000408C20000080400090007800A04580008D
:103A200000804000A04588001E0FE800F001200043
:103A30009E0F1000F4FF3400A04580004580DE009A
:103A4000904588000000EB00000F78000B00370065
:103A50001E0178001E00E800800040004090200019
:103A600000804000900178008200410040902000DA
:103A700000804000030878001E0FE800E0012000ED
:103A80009E0F1000F2FF340090458000104A88001D
:103A90000603A9000080FA004F01BE004F00BE00DF
:103AA00000400600809FBE00829FBE000200FA0018
:103AB0009200A900401A8000A0438800501A80009C
:103AC000B0438800E1438000B0438000808F500005
:103AD00002003D00B0438000E04388000000EB009E
:103AE000000F78000B0037001E0178001E00E80070
:103AF0008000400080A420000080400090017800F9
:103B00008200410080A4200000804000030878006B
:103B10001E0FE800E00120009E0F1000F2FF3400AD
:103B2000501A8000305488000000EB007054880068
:103B30000000EB00000F7800090037001E0078003D
:103B40008000400080A420000080400090007800A9
:103B50007054800000804000705488001E0FE80000
:103B6000F00120009E0F1000F4FF3400705480001C
:103B70004580DE0060548800605480000000E00052
:103B800002003D000000EB00605488000643A900DD
:103B90000080FA004F01BE004F00BE00004006004A
:103BA000801F78000000FA009240A900901A80005F
:103BB000004588000683A9000080FA004F007800C5
:103BC00000400600809FBE00829FBE000200FA00F7
:103BD0009260A900A01A800020438800B01A8000DB
:103BE000304388001145800020438000808F5000C2
:103BF00002003D0020438000104588000000EB00DB
:103C0000000F78000B0037001E0178001E00E8004E
:103C100080004000809820000080400090017800E3
:103C20008200410080982000008040000308780056
:103C30001E0FE800E00120009E0F1000F2FF34008C
:103C4000A01A8000304E88000000EB0080548800ED
:103C50000000EB00000F7800090037001E0078001C
:103C60008000400080982000008040009000780094
:103C70008054800000804000805488001E0FE800BF
:103C8000F00120009E0F1000F4FF340080548000EB
:103C90004580DE0090548800905480000000E000D1
:103CA00002003D000000EB009054880006A3A9002C
:103CB0000080FA004F01BE004F00BE000040060029
:103CC000809FBE00829FBE000200FA009280A90081
:103CD000C01A800040438800D01A800050438800FA
:103CE0003145800040438000808F500002003D003D
:103CF00040438000304588000000EB00000F780052
:103D00000B0037001E0178001E00E8008000400014
:103D100080942000008040009001780082004100E3
:103D20008094200000804000030878001E0FE80007
:103D3000E00120009E0F1000F2FF3400C01A800046
:103D4000304C88000000EB00A05488000000EB001D
:103D5000000F7800090037001E0078008000400046
:103D6000809420000080400090007800A0548000E3
:103D700000804000A05488001E0FE800F0012000E1
:103D80009E0F1000F4FF3400A05480004580DE0038
:103D9000B0548800B05480000000E00002003D00F4
:103DA0000000EB00B054880006C3A9000080FA00B0
:103DB0004F01BE004F00BE0000400600809FBE00C5
:103DC000829FBE000200FA0092A0A900E01A8000C3
:103DD00060438800F01A80007043880051458000DD
:103DE00060438000808F500002003D0060438000EF
:103DF000504588000000EB00000F78000B003700F2
:103E00001E0178001E00E80080004000809C200019
:103E1000008040009001780082004100809C2000DA
:103E200000804000030878001E0FE800E001200039
:103E30009E0F1000F2FF3400E01A8000305088001E
:103E40000000EB00C05488000000EB00000F780079
:103E5000090037001E00780080004000809C200090
:103E60000080400090007800C05480000080400036
:103E7000C05488001E0FE800F00120009E0F1000C3
:103E8000F4FF3400C05480004580DE00D054880028
:103E900006E3A9000080FA004F01BE004F00BE00FB
:103EA00000400600809FBE00829FBE000200FA0014
:103EB0008E60A900401B800090438800501B80004A
:103EC00080438800C143800090438000808F500071
:103ED00002003D0090438000C04388000000EB00DA
:103EE000000F78000B0037001E0178001E00E8006C
:103EF0008000400080A020000080400090017800F9
:103F00008200410080A0200000804000030878006B
:103F10001E0FE800E00120009E0F1000F2FF3400A9
:103F2000401B8000305288000000EB005054880095
:103F30000000EB00000F7800090037001E00780039
:103F40008000400080A020000080400090007800A9
:103F50005054800000804000505488001E0FE8003C
:103F6000F00120009E0F1000F4FF34005054800038
:103F70004580DE0040548800405480000000E0008E
:103F800002003D000000EB00405488000743A900F8
:103F90000080FA004F01BE004F00BE000040060046
:103FA000809FBE000200FA008460A90005E1A9001C
:103FB000905680000000E8009056880090568000DF
:103FC000F40F50002E003A000000EB0090568800DD
:103FD0001045800020458800100020001045880012
:103FE00030458000404588001000200030458800A2
:103FF0005045800060458800100020005045880032
:10400000C0438000D043880020002000C0438800C7
:10401000E0438000F043880020002000E043880057
:10402000F0428000000F78001E0078000000E000E1
:10403000040032001E007800E10F50000900320039
:104040000F0037000145800080072000808F50005E
:104050000B003400DDA2A80010002000F042880010
:104060000700370001458000A0042000808F500029
:1040700003003C00DDA2A9000000EB00F042880034
:104080000000EB000008880005E1A8000080FA00AD
:104090004F00BE0000400600809FBE00829FBE0011
:1040A0000200FA008500A90013E1A90057C8BF006B
:1040B0000000FB00000F7800700620009E007800D2
:1040C000808F500090033200700620009E00780020
:1040D000808F500009003C00200420009E007800E2
:1040E000808F500082023200200620009E0078005F
:1040F000808F50004201320080043700E00620002B
:104100009E007800808F500005003200500720008C
:104110009E007800808F50008200320077043700C4
:104120004011290030578800EC22A900F422A90090
:10413000F402A900E4E2A900DD62A900D5A2A90069
:10414000D5C2A900605580000000E80060558800D5
:104150006155800080BB2000808F500067043400D0
:104160000000EB0060558800B1548000E00620009C
:10417000808F50001C00340050C7B30057E8B700D0
:104180000000EB00605588000000EB0070558800CF
:104190000000EB00805588000000EB00905588007F
:1041A0000000EB00A05588000000EB00B05588002F
:1041B0000000EB00C05588000000EB00D0558800DF
:1041C0000000EB00E05588006000B8002056880031
:1041D000315688000000EB00F05588000000EB002D
:1041E0000056880045043700B1548000D0062000F6
:1041F000808F500020003C00D1548000E006200059
:10420000808F50001C00340070C6B30057E8B70020
:104210000000EB00605588000000EB00705588003E
:104220000000EB00805588000000EB0090558800EE
:104230000000EB00A05588000000EB00B05588009E
:104240000000EB00C05588000000EB00D05588004E
:104250000000EB00E05588006000B80020568800A0
:10426000315688000000EB00F05588000000EB009C
:104270000056880021043700B1548000D006200089
:10428000808F500024003C00D1548000D0062000D4
:10429000808F500020003C0091548000E0062000F8
:1042A000808F50001C00340020C6B30057E8B700D0
:1042B0000000EB00605588000000EB00705588009E
:1042C0000000EB00805588000000EB00905588004E
:1042D0000000EB00A05588000000EB00B0558800FE
:1042E0000000EB00C05588000000EB00D0558800AE
:1042F0000000EB00E05588006000B8002056880000
:10430000315688000000EB00F05588000000EB00FB
:1043100000568800F9033700E0C6B30057E8B7003D
:10432000F6033700C011290030578800EC22A9009D
:10433000F422A800F402A900E4E2A800DD62A900CA
:10434000D5A2A800D5C2A900E402A800E422A800D2
:10435000E442A800E462A800E482A800E4A2A80065
:10436000E4C2A800F442A800F462A8000000EB0038
:1043700010568800B1548000D0062000808F500075
:1043800071003C00D1548000E0062000808F500076
:1043900004003C0091548000E0062000808F500013
:1043A00069003400EC22A900F422A900F402A9005B
:1043B000805580000000E80080558800805580000E
:1043C000EC0F5000CD033400D1548000E0062000F3
:1043D000808F50001C0034000000EB006055880006
:1043E0000000EB00705588000000EB00805588004D
:1043F0000000EB00905588000000EB00A0558800FD
:104400000000EB00B05588000000EB00C0558800AC
:104410000000EB00D05588000000EB00E05588005C
:104420006000B80020568800315688000000EB007C
:10443000F05588000000EB000056880070C6B300FD
:1044400057E8B700AD033700D1548000D0062000F4
:10445000808F500020003C0091548000E006200036
:10446000808F50001C0034000000EB006055880075
:104470000000EB00705588000000EB0080558800BC
:104480000000EB00905588000000EB00A05588006C
:104490000000EB00B05588000000EB00C05588001C
:1044A0000000EB00D05588000000EB00E0558800CC
:1044B0006000B80020568800315688000000EB00EC
:1044C000F05588000000EB000056880020C6B300BD
:1044D00057E8B700890337000000EB0060558800FB
:1044E0000000EB00705588000000EB00805588004C
:1044F0000000EB00905588000000EB00A0558800FC
:104500000000EB00B05588000000EB00C0558800AB
:104510000000EB00D05588000000EB00E05588005B
:104520006000B80020568800315688000000EB007B
:10453000F05588000000EB0000568800E0C6B3008C
:1045400057E8B7006D033700B1548000D006200053
:10455000808F500027003C00D1548000D0062000FE
:10456000808F500023003C0091548000D006200032
:10457000808F50001F003C00EC22A900F422A9000B
:10458000F402A9000000EB00605588000000EB0079
:10459000705588000000EB00805588000000EB009B
:1045A000905588000000EB00A05588000000EB004B
:1045B000B05588000000EB00C05588000000EB00FB
:1045C000D05588000000EB00E05588006000B8007E
:1045D00020568800315688000000EB00F055880016
:1045E0000000EB0000568800E0C6B30057E8B700B3
:1045F000420337000000EB00805588003F0337007E
:104600007012290030578800DD62A800D5A2A900E9
:10461000D5C2A900EC22A800F422A900F402A90046
:10462000E4E2A900E402A800E422A800E442A80011
:10463000E462A800E482A800E4A2A800E4C2A80002
:10464000F442A800F462A800415480001003200046
:10465000808F500004003C00615480001003200053
:10466000808F50002C00340020568000315680008E
:1046700061004000E08048002056880031568800E4
:104680002256800033568000803E2000010020002A
:10469000800F5100818F59002900340020C4B300DD
:1046A00057E8B7006000B8002056880031568800EF
:1046B000F442A900F462A9000000EB0060558800F4
:1046C0000000EB00705588000000EB00805588006A
:1046D0000000EB00905588000000EB00A05588001A
:1046E0000000EB00B05588000000EB00C0558800CA
:1046F0000000EB00D05588000000EB00E05588007A
:104700006000B80020568800315688000000EB0099
:10471000F05588000A0037006000B8002056880075
:1047200031568800E402A800E422A800E442A80070
:10473000E462A800E482A800E4A2A800E4C2A80001
:1047400070458000FD0F500007003C009154800030
:10475000E0062000808F50000300340000568000E7
:104760000000E8000056880001568000A03E2000AE
:10477000808F500002003400B03E200000568800B8
:1047800070458000FD0F500025003C0091548000D2
:10479000E0062000808F5000210034000156800088
:1047A000803E2000808F50001D00340020C4B300E4
:1047B00057E8B700F442A900F462A9000000EB003A
:1047C000605588000000EB00705588000000EB0089
:1047D000805588000000EB00905588000000EB0039
:1047E000A05588000000EB00B05588000000EB00E9
:1047F000C05588000000EB00D05588000000EB0099
:10480000E05588006000B8002056880031568800C6
:104810000000EB00F05588000000EB000056880017
:1048200091548000D0062000808F500007003C008B
:10483000D1548000E0062000808F50000300340037
:10484000805580000000E800805588008055800079
:104850000000E00030003400D1548000E006200069
:10486000808F500008003400EC22A900F422A90037
:10487000F402A900E4E2A900805580000000E800ED
:1048800080558800020037000000EB00805588004A
:1048900080558000EC0F50001F0034000000EB003A
:1048A000605588000000EB00705588000000EB00A8
:1048B000805588000000EB00905588000000EB0058
:1048C000A05588000000EB00B05588000000EB0008
:1048D000C05588000000EB00D05588000000EB00B8
:1048E000E05588006000B8002056880031568800E6
:1048F0000000EB00F05588000000EB000056880037
:10490000EC22A900F422A900F402A800E4E2A90024
:1049100070C6B30057E8B700B1548000E00620002D
:10492000808F500019003400905580000000E8008E
:104930009055880091558000803E2000808F500067
:10494000180034000000EB0090558800A05580004E
:104950000000E800A0558800A0558000EA0F500034
:10496000100034000000EB00A0558800B055800016
:104970000000E800B0558800EC22A900F422A9004C
:10498000F402A900E4E2A900060037000000EB00F1
:10499000905588000000EB00A05588000000EB0057
:1049A000B0558800B05580000000E00025003400BC
:1049B000B05580000000E800B0558800B055800078
:1049C000EC0F50001F0034000000EB006055880021
:1049D0000000EB00705588000000EB008055880057
:1049E0000000EB00905588000000EB00A055880007
:1049F0000000EB00B05588000000EB00C0558800B7
:104A00000000EB00D05588000000EB00E055880066
:104A10006000B80020568800315688000000EB0086
:104A2000F05588000000EB0000568800EC22A90039
:104A3000F422A800F402A900E4E2A80050C7B300E1
:104A400057E8B700B1548000D0062000808F500096
:104A50002A023C00D1548000D0062000808F5000F4
:104A600026023C0091548000D0062000808F500028
:104A700022023C00EC22A900F422A900F402A900C1
:104A80000000EB00605588000000EB0070558800C6
:104A90000000EB00805588000000EB009055880076
:104AA0000000EB00A05588000000EB00B055880026
:104AB0000000EB00C05588000000EB00D0558800D6
:104AC0000000EB00E05588006000B8002056880028
:104AD000315688000000EB00F05588000000EB0024
:104AE00000568800E0C6B30057E8B700030237005D
:104AF000E402A900E422A900E442A900E462A900BA
:104B0000E482A900E4A2A800E4C2A800DD62A80033
:104B1000D5A2A8002013290030578800EC22A80055
:104B2000F422A900F402A900E4E2A9006055800083
:104B30000000E8006055880061558000803E20003C
:104B4000808F5000050034000000EB0060558800A5
:104B5000705580000000E800705588007055800096
:104B6000FE0F50000C003400F05580000000E800FB
:104B7000F05588000000EB0070558800D15480008B
:104B8000E0062000808F5000030034008055800034
:104B90000000E8008055880010568000E20F5000A9
:104BA00026003C00F0558000E40F50002300340044
:104BB00070458000FE0F5000200034001056800029
:104BC0000000E8001056880020C6B30057E8B70080
:104BD000F442A900F462A9000000EB0060558800CF
:104BE0000000EB00705588000000EB008055880045
:104BF0000000EB00905588000000EB00A0558800F5
:104C00000000EB00B05588000000EB00C0558800A4
:104C10000000EB00D05588000000EB00E055880054
:104C20006000B80020568800315688000000EB0074
:104C3000F05588000000EB0000568800B154800059
:104C4000E0062000808F500019003400905580004D
:104C50000000E8009055880091558000803E2000BB
:104C6000808F5000180034000000EB009055880041
:104C7000A05580000000E800A0558800A0558000E5
:104C8000EA0F5000100034000000EB00A05588002F
:104C9000805580000000E80080558800EC22A900C3
:104CA000F422A900F402A900E4E2A90006003700FA
:104CB0000000EB00905588000000EB00A055880034
:104CC0000000EB00B0558800805580000000E00037
:104CD00060003400B1548000E0062000808F500056
:104CE00004003C00D1548000E0062000808F50007A
:104CF00058003400EC22A900F422A900F402A90013
:104D0000E4E2A900805580000000E800805588009A
:104D100080558000EC0F5000500034000000EB0084
:104D200080558800B1548000E0062000808F50003C
:104D30002000340050C7B30057E8B700EC22A900A8
:104D4000F422A800F402A900E4E2A8000000EB00AD
:104D5000605588000000EB00705588000000EB00F3
:104D6000805588000000EB00905588000000EB00A3
:104D7000A05588000000EB00B05588000000EB0053
:104D8000C05588000000EB00D05588000000EB0003
:104D9000E05588006000B800205688003156880031
:104DA0000000EB00F05588000000EB000056880082
:104DB0002A003700D1548000E0062000808F500088
:104DC00026003400B1548000D0062000808F5000AF
:104DD00022003C0070C6B30057E8B700EC22A900DF
:104DE000F422A900F402A800E4E2A8000000EB000D
:104DF000605588000000EB00705588000000EB0053
:104E0000805588000000EB00905588000000EB0002
:104E1000A05588000000EB00B05588000000EB00B2
:104E2000C05588000000EB00D05588000000EB0062
:104E3000E05588006000B800205688003156880090
:104E40000000EB00F05588000000EB0000568800E1
:104E5000020037000000EB0080558800B15480004C
:104E6000D0062000808F500024013C00D1548000E7
:104E7000D0062000808F500020013C00915480001B
:104E8000D0062000808F50001C013C00EC22A900BD
:104E9000F422A900F402A9000000EB00605588008C
:104EA0000000EB00705588000000EB008055880082
:104EB0000000EB00905588000000EB00A055880032
:104EC0000000EB00B05588000000EB00C0558800E2
:104ED0000000EB00D05588000000EB00E055880092
:104EE0006000B80020568800315688000000EB00B2
:104EF000F05588000000EB0000568800E0C6B300C3
:104F000057E8B700FD003700DD62A900D5A2A9006F
:104F1000D5C2A9000014290030578800EC22A9004E
:104F2000F422A900F402A800E4E2A8000000EB00CB
:104F300010568800E402A800E422A800E442A80079
:104F4000E462A800E482A800E4A2A800E4C2A800E9
:104F50004154800060548000808040001004200094
:104F6000808F50001E003C00605580000000E8006B
:104F70006055880061558000803E2000808F500081
:104F80001D0034000000EB00605588007055800063
:104F90000000E8007055880071558000004B20002B
:104FA000808F50001400340071458000A00520005F
:104FB000808F500007003400D5C2A8000000EB002D
:104FC00070558800805580000000E80080558800FA
:104FD000090037000000EB0070558800060037001C
:104FE0000000EB00605588000000EB007055880061
:104FF0000000EB0080558800D1548000D0062000CE
:10500000808F50000B003C0091548000E00620008F
:10501000808F500007003400B1548000D00620007B
:10502000808F500003003C00805580000000E800A5
:1050300080558800805580000000E000300034007A
:1050400091548000E0062000808F5000080034005A
:10505000EC22A900F422A900F402A900E4E2A900CC
:10506000805580000000E80080558800020037006D
:105070000000EB008055880080558000EC0F500048
:105080001F0034000000EB00605588000000EB00BA
:10509000705588000000EB00805588000000EB0090
:1050A000905588000000EB00A05588000000EB0040
:1050B000B05588000000EB00C05588000000EB00F0
:1050C000D05588000000EB00E05588006000B80073
:1050D00020568800315688000000EB00F05588000B
:1050E0000000EB0000568800EC22A800F422A90082
:1050F000F402A900E4E2A90020C6B30057E8B70013
:10510000B1548000E0062000808F50001900340068
:10511000905580000000E80090558800915580006F
:10512000803E2000808F5000180034000000EB000B
:1051300090558800A05580000000E800A055880028
:10514000A0558000F40F5000100034000000EB0068
:10515000A0558800B05580000000E800B0558800D8
:10516000EC22A900F422A900F402A900E4E2A900BB
:10517000060037000000EB00905588000000EB00AF
:10518000A05588000000EB00B0558800B0558000A5
:105190000000E0002F003400B1548000E006200041
:1051A000808F500007003400EC22A900F422A900EF
:1051B000F402A900B05580000000E800B055880056
:1051C000020037000000EB00B0558800B0558000A9
:1051D000EC0F50001F0034000000EB006055880009
:1051E0000000EB00705588000000EB00805588003F
:1051F0000000EB00905588000000EB00A0558800EF
:105200000000EB00B05588000000EB00C05588009E
:105210000000EB00D05588000000EB00E05588004E
:105220006000B80020568800315688000000EB006E
:10523000F05588000000EB0000568800EC22A90021
:10524000F422A800F402A900E4E2A90050C7B300C8
:1052500057E8B700B1548000D0062000808F50007E
:1052600026003C00D1548000D0062000808F5000E2
:1052700022003C0091548000D0062000808F500016
:105280001E003C00EC22A900F422A900F402A900AF
:105290000000EB00605588000000EB0070558800AE
:1052A0000000EB00805588000000EB00905588005E
:1052B0000000EB00A05588000000EB00B05588000E
:1052C0000000EB00C05588000000EB00D0558800BE
:1052D0000000EB00E05588006000B8002056880010
:1052E000315688000000EB00F05588000000EB000C
:1052F00000568800E0C6B30057E8B7000000EB0096
:105300005008880013E1A8000080FA004F01BE0099
:105310004F00BE000040060050080000B40200002C
:1053200000000000040B0000A000000002000000CC
:10533000010000000000000000000A000000000062
:1053400000000000006400000000000000000000F9
:10535000E80300000000000000001000270000002B
:105360000000000000A08600010000000000000016
:1053700040420F00000000000000800096980000EE
:10538000000000000000E100F50500000000000042
:1053900000CA9A003B00000000000000E40B54002B
:1053A000020000000000E80076481700000000003E
:1053B0000010A500D4E8000000000000A0724E001C
:1053C00018090000000040007A10F3005A000000A5
:1053D0000080C600A47E8D000300000000C16F00A5
:1053E000F2862300000000008A5D7800456301001A
:1053F00000006400A7B3B600E00D000000E88900DB
:105400000423C7008A000000A40B00002A0000004B
:1054100002000000286E75006C6C2900003031001D
:1054200032333400353637003839410042434400C6
:10543000454600003031320033343500363738000D
:10544000396162006364650066000000CE0B0000F5
:105450002600000002000000D00BF6000B00000048
:10546000F60B0900000000000200F4000B00000031
:10547000F40B060002010000000000000000000024
:10548000000006000202000000000000F40B000013
:105490000600000000000000FA0B000002000000FF
:1054A0000200000001000000000000000000FA00FF
:1054B0002002A900012220009140780090CFB30083
:1054C00000C0600020E2B70020A2A9003010200038
:1054D0004011880023A2A90023E2A90022C2BF0034
:1054E000F043B20022E2B700910A20009140780018
:1054F000F0C8B30000C060000044A000A9E0B700FD
:10550000A10A20009140780080CFB30000C0600065
:105510000004A000AAE0B70021E2A8002342A800EE
:105520009C20A9000080FA00000006000000FA009C
:105530008C20A9000080FA00004006000000FA005C
:105540008020A900FFFF37000000FA008060A9005A
:10555000FFFF37000000FA008040A900FFFF37007E
:105560000000FA008080A900FFFF37000000FA0069
:1055700080A0A900FFFF37000000FA008020A900EA
:10558000FFFF37000000FA008060A900FFFF37002E
:105590000000FA008040A900FFFF37000000FA0079
:1055A0008080A900FFFF37000000FA0080A0A9005A
:1055B000FFFF3700FFFFFF00FFFFFF00FFFFFF00BF
:1055C000FFFFFF00FFFFFF00FFFFFF00FFFFFF00E7
:1055D000FFFFFF00FFFFFF00FFFFFF00FFFFFF00D7
:1055E000FFFFFF00FFFFFF00FFFFFF00FFFFFF00C7
:1055F000FFFFFF00FFFFFF00FFFFFF00FFFFFF00B7
:020000040001F9
:0200000401F009
:100000000F00000000000000070000008200000058
:10001000430000007F00000067000000C3000000F4
:040020003F0000009D
:00000001FF
